S00E00004C49435F54532E7372656338
S11300000C94D7000C94E9000C94E9000C94E900DA
S11300100C94E9000C94E9000C94F0000C94E900B1
S11300200C94E9000C94E9000C94E9000C94E900A8
S11300300C94E9000C9420070C94E9000C944E07EE
S11300400C94E9000C94E9000C94E9000C94E90088
S11300500C94E90085028F028F028F028F028F02B7
S11300608F028F0230028F028F028F028F028F0263
S11300708F028F0230028F028F028F028F028F0253
S11300808F028F028F028F028F028F028F028F02E4
S11300908F028F028F028F028F028F028F028F02D4
S11300A08F028F023E028F028F028F028F028F0215
S11300B08F028F028F028F028F028F028F028F02B4
S11300C08F028F0245028F028F028F028F028F02EE
S11300D08F028F024C028F028F028F028F028F02D7
S11300E08F028F0259028F028F028F028F028F02BA
S11300F08F028F0260028F028F028F028F028F02A3
S11301008F028F027E02FC02060306030603060327
S1130110060306030603AD020603060306030603ED
S1130120060306030603AD020603060306030603DD
S1130130060306030603BA020603060306030603C0
S1130140060306030603CA020603060306030603A0
S1130150060306030603D102060306030603060389
S1130160060306030603EE0206030603060306035C
S1130170060306030603EE0206030603060306034C
S11301800603060306030603060306030603060323
S1130190060306030603F5029108940897089A08D3
S11301A09D08A008A308A608A908AC08AF08112454
S11301B01FBECFE5D8E0DEBFCDBF22E0A0E6B0E0B1
S11301C001C01D92AC30B207E1F70E94BD010C944E
S11301D0F2080C94000087EB90E00E945D080895FB
S11301E01F920F920FB60F9211248F9381E0809388
S11301F073008F910F900FBE0F901F9018958091F0
S11302007300882389F0109273000E942108809162
S11302107200882349F0815080937200811104C0D8
S113022098B380E1892788BB0895CF93DF938091A9
S11302307B0083FF9FC00E943908DC01E7ECF0E0FB
S113024080ED90E02D912193E817F907D9F70E94EA
S11302504A0880917B00877F80937B000E948A03F9
S1130260811188C00E94AA038E3019F0803161F197
S113027081C08091CA00823009F07CC08091C9009D
S1130280813071F018F08230A9F074C0809195002B
S113029080FF03C00E94E9016DC00E94ED016AC0A5
S11302A08091950081FF03C00E94F10163C00E9408
S11302B0F50160C08091950082FF03C00E94F9019E
S11302C059C00E94FD0156C08091C900809362000C
S11302D08091CD00809363008091CE008093640070
S11302E08FEF809371000E941202CAECD0E0688103
S11302F082E690E00E9497029093610080936000F0
S1130300892BA9F30E9417022FEF8FEF9CE2215053
S113031080409040E1F700C000000E941202CAEC45
S1130320D0E088810E941C02909361008093600059
S11303300097B9F38130910519F0029751F012C07A
S11303404091860050E060E070E08AE00E946F0314
S11303500FC04091CA0050E060E070E088E00E9465
S11303606F0306C040E050E0BA0189E00E946F03C9
S11303700E941702DF91CF9108958AB38E6F8ABBD2
S113038087B3886187BB84B3806F84BB81B38C617E
S113039081BB0E940D020E940F030E94820788E81D
S11303A098E090937700809376008BEE90E09093A2
S11303B079008093780080E190E00E9434030E94E9
S11303C0010278940E94FF000E9490070E94150188
S11303D0F9CFDF9ADB98DA9A0895DF98DB9ADA98F6
S11303E00895DE9ADD98DC9A0895DE98DD9ADC980B
S11303F00895D99A949A93980895D998939A949829
S11304000895C39A0E94ED010E94F5010E94FD0126
S11304100895C49A0895C49808958AE080B984E43C
S113042086BF089586B78F70806A86BF089586B7A1
S11304308F70806986BF0895CF93DF93C82F0E9481
S1130440090206B607FE68C041B1487F50E049354D
S1130450510508F064C0FA01E65DFF4F0C94B4083E
S11304601092740010927500CC0FC160C3B986B7A6
S11304708F70806886BFC0E0D0E053C086B78F74A9
S1130480806A86BFC0E0D0E04CC086B78F74806AB3
S113049086BFC0E0D0E045C083B18093850081E091
S11304A08093750086B78F70806C86BFC0E0D0E003
S11304B038C086B78F74806986BFC2E0D0E031C08F
S11304C080917500E82FF0E093B1EB57FF4F9083D4
S11304D08F5F80937500803138F486B78F70806C9D
S11304E086BFC0E0D0E01DC086B78F70806886BF2D
S11304F080E180937500C0E0D0E013C086B78B74B0
S1130500846986BFC1E0D0E00CC086B78F70806973
S113051086BFC0E0D0E005C0C0E0D0E002C0C0E0CB
S1130520D0E00E940B02CE01DF91CF9108951F937A
S1130530CF93DF93EC01162F0E94090206B607FE43
S113054062C041B1487F50E04934510508F05EC0B3
S1130550FA01ED57FF4F0C94B408109274001092F6
S11305607500110F13B986B78F70806886BFC0E01D
S1130570D0E04EC080917400C80FD11D888183B92A
S113058081E08093740086B78F70806886BFC0E076
S1130590D0E03EC086B78F70806986BFC2E0D0E0ED
S11305A037C080917400803180F4C80FD11D8881D8
S11305B083B9809174008F5F8093740086B78F70C5
S11305C0806886BFC0E0D0E023C01092740086B774
S11305D08F70806986BFC1E0D0E01AC086B78F7083
S11305E0806986BFC2E0D0E013C086B78F7080698F
S11305F086BFC0E0D0E00CC086B78F70806986BF2C
S1130600C0E0D0E005C0C0E0D0E002C0C0E0D0E06F
S11306100E940B02CE01DF91CF911F9108951BBC64
S11306201ABC19BC18BC8FE392E097BD86BD82EA60
S11306308FBD8CE18EBD89B7806289BF0895E0913A
S11306407800F0917900309709F009950895E7EB67
S1130650F0E08FEB90E020E03191230FE817F907E9
S1130660D9F72093BF000895CF93DF93EC019093C3
S1130670D1008093D00045E050E0BC0180EC90E0D4
S11306800E94BA088091C0008234A9F082E4809369
S1130690C00084E08093C10085E08093C200109282
S11306A0C30082E08093C40045E050E0BE0180ECCA
S11306B090E00E94DB08E0917600F091770030979B
S11306C019F08091C10009958091C4008093D200F3
S11306D08091C2008093C600DF91CF9108959091DC
S11306E0D2009093B7009091C6009093B800809385
S11306F0B9008091C8008093BA007093BB006093E6
S1130700BC005093BD004093BE000E9427030E948A
S11307101F0308959091C7008091C600981316C0D6
S1130720E7ECF0E08FEC90E020E03191230FE81744
S1130730F907D9F78091CF00281751F040E050E035
S1130740BA0181E00E946F0383E0089582E0089576
S113075080E008950F931F93CF93DF931F92CDB73B
S1130760DEB72091CB006091CC00862F90E0A0E012
S1130770B0E0DC0199278827B22B2091CE00822B90
S11307802091CD00BC01CD01722B6093B300709316
S1130790B4008093B5009093B6002091C8002A302D
S11307A009F482C288F4243009F4F8C228F4213010
S11307B009F1223039F1EAC2263009F474C050F14B
S11307C0293009F4CFC1E2C22F3009F453C138F4FF
S11307D02D3009F4C5C12E3009F4E7C0D7C228383A
S11307E009F4ABC22E3F21F0203109F0CFC2B6C1CB
S11307F08EEFD9C240E050E0BA0184E60E946F0354
S113080081E0D1C240E050E0BA0184E60E946F0367
S113081082E0C9C22091CA00222341F040E050E0A6
S1130820BA0184E00E946F0380E0BDC22091C90038
S11308302630E9F028F4243041F0253079F02BC03B
S11308402730F1F02C3829F126C060939E00709374
S11308509F008093A0009093A1001DC06093A2000C
S11308607093A3008093A4009093A50014C0609398
S1130870A6007093A7008093A8009093A9000BC0D2
S11308806093AA007093AB008093AC009093AD008A
S113089002C06093AE0040E050E0BA0184E60E94DA
S11308A06F0380E080C28091CA00882341F040E059
S11308B050E0BA0184E00E946F0380E074C280912A
S11308C0C900863061F138F4843009F442C0D0F4B0
S11308D0813059F062C08C3809F448C0843C09F472
S11308E04FC0873009F059C027C040919A005091F9
S11308F09B0060919C0070919D0084E60E946F03B0
S113090080E051C24091A2005091A3006091A400E4
S11309107091A50084E60E946F0380E044C2409178
S1130920A6005091A7006091A8007091A90084E6E8
S11309300E946F0380E037C24091AA005091AB003F
S11309406091AC007091AD0084E60E946F0380E07A
S11309502AC240919E0050919F006091A000709126
S1130960A10084E60E946F0380E01DC24091AE00A6
S113097050E060E070E084E60E946F0380E013C200
S11309804091AF005091B0006091B1007091B200FD
S113099084E60E946F0380E006C240E050E0BA01A2
S11309A084E00E946F0380E0FEC12091CA002130E0
S11309B009F4F6C118F0223049F054C040E050E088
S11309C0BA0183E00E946F038EE0EDC12091C9005B
S11309D02130C1F018F0223049F13CC021E0672BEE
S11309E0682B692B09F420E08091950020FB80F9A5
S11309F08093950040E050E0BA0184E60E946F03C2
S1130A008EE0D1C121E0672B682B692B09F420E02B
S1130A108091950020FB81F98093950040E050E09F
S1130A20BA0184E60E946F038EE0BDC121E0672B0A
S1130A30682B692B09F420E08091950020FB82F952
S1130A408093950040E050E0BA0184E60E946F0371
S1130A508EE0A9C140E050E0BA0183E00E946F0338
S1130A608EE0A1C140E050E0BA0183E00E946F0330
S1130A708EE099C18091CA00813029F030F0823033
S1130A8009F446C08FC18FE08EC18091C9008130C6
S1130A9089F028F08230D1F0833029F131C04091BF
S1130AA0C500417050E060E070E084E60E946F038E
S1130AB080E079C14091C5004695417050E060E006
S1130AC070E084E60E946F0380E06DC14091C50030
S1130AD042FB442740F950E060E070E084E60E9465
S1130AE06F0380E060C14091C50043FB442740F997
S1130AF050E060E070E084E60E946F0380E053C140
S1130B0040E050E0BA0184E00E946F0380E04BC1F2
S1130B108091C900882319F0813061F017C0409199
S1130B209500417050E060E070E084E60E946F033D
S1130B3080E039C1409195004695417050E060E0F5
S1130B4070E084E60E946F0380E02DC140E050E035
S1130B50BA0184E00E946F0380E025C180E123C1D3
S1130B608DE021C12091CA00222341F040E050E0F1
S1130B70BA0184E00E946F0380E015C12091C9008E
S1130B80213451F118F4203441F086C0223409F4A0
S1130B9043C02C3409F460C07FC00091C00010E051
S1130BA020E030E0601771078207930769F06093D3
S1130BB0C000198249812091D0003091D100C9012F
S1130BC0840F911D0E94CA0840E050E0BA0184E6F7
S1130BD00E946F0380E0E7C00091C10010E020E0B4
S1130BE030E0601771078207930771F06093C100CA
S1130BF021E0298349812091D0003091D100C9019D
S1130C00840F911D0E94CA0840E050E0BA0184E6B6
S1130C100E946F0380E0C7C00091C20010E020E092
S1130C2030E0601771078207930771F06093C20088
S1130C3022E0298349812091D0003091D100C9015B
S1130C40840F911D0E94CA0840E050E0BA0184E676
S1130C500E946F0380E0A7C00091C40010E020E070
S1130C6030E0601771078207930771F06093C40046
S1130C7024E0298349812091D0003091D100C90119
S1130C80840F911D0E94CA0840E050E0BA0184E636
S1130C900E946F0380E087C040E050E0BA0184E026
S1130CA00E946F0380E07FC08091CA00882341F0D6
S1130CB040E050E0BA0184E00E946F0380E073C01A
S1130CC08091C900813449F018F4803421F12DC099
S1130CD0823469F08C34A9F028C04091C10050E0FE
S1130CE060E070E084E60E946F0380E05CC04091A5
S1130CF0C20050E060E070E084E60E946F0380E090
S1130D0052C04091C40050E060E070E084E60E946C
S1130D106F0380E048C04091C00050E060E070E0A4
S1130D2084E60E946F0380E03EC040E050E0BA01D8
S1130D3084E00E946F0380E036C08091C900811175
S1130D401CC08091D2008093B70081E38093B800E7
S1130D5090E39093B90022E32093BA008093BB0000
S1130D6036E53093BC008093BD002093BE00909381
S1130D70BF000E941F0380E016C040E450E360E21D
S1130D8070E184E60E946F0380E00DC040E050E013
S1130D90BA0182E00E946F0380E005C084E003C0D2
S1130DA08EE001C080E00F90DF91CF911F910F91F1
S1130DB008959091830080918400981761F0909138
S1130DC084009F5F9F70E92FF0E0E459FE4F80811B
S1130DD090938400089580E00895909183009F5F2C
S1130DE09F70E92FF0E0E459FE4F808390938300D5
S1130DF0089590918200E92FF0E0ED52FF4F808139
S1130E009F5F90938200089580917B0080FD0BC0CA
S1130E1080917B00816080937B00929A1092820083
S1130E200E94F9068CB90895882311F0579A089501
S1130E3057980895882311F0569A0895569808955E
S1130E401F920F920FB60F9211242F933F934F933B
S1130E505F936F937F938F939F93AF93BF93EF931E
S1130E60FF9385E080937D008BB190917C00892B6A
S1130E7080937C008CB10E94ED06FF91EF91BF91AD
S1130E80AF919F918F917F916F915F914F913F911E
S1130E902F910F900FBE0F901F9018951F920F92D5
S1130EA00FB60F9211242F933F934F935F936F9339
S1130EB07F938F939F93AF93BF93EF93FF9380910F
S1130EC07B0080FF0EC080918200893038F08091D1
S1130ED07B008E7F80937B00929803C00E94F9066A
S1130EE08CB9FF91EF91BF91AF919F918F917F91B9
S1130EF06F915F914F913F912F910F900FBE0F9083
S1130F001F90189587E089B98AB188618AB981E010
S1130F100E94140781E00E941A0710927C00089531
S1130F20BF92CF92DF92EF92FF920F931F93CF93D2
S1130F30DF939091800080918100981749F180910E
S1130F407B0080FD25C0509181005F5F5F70852F1D
S1130F5090E09C01220F331F220F331F220F331FF7
S1130F60820F931F84589E4F9C01275F3F4FFC01C3
S1130F70DF01A81BB90B4191AD52BF4F4C93E2174F
S1130F80F307B1F750938100109282000E94040786
S1130F9080917B0083FD4BC08091830090918400FD
S1130FA0891B8F70893008F442C0B0907E0081E0C4
S1130FB08B0D8F70B82EE82EF12CF701EE0FFF1F6A
S1130FC0EE0FFF1FEE0FFF1FEE0DFF1DCF0184522A
S1130FD09F4F6C018C01075F1F4FEC010E94D906E3
S1130FE08993C017D107D1F7F60190E080E02191F1
S1130FF0920F8F5F8830D9F7F701EE0FFF1FEE0FC6
S1131000FF1FEE0FFF1FEE0DFF1DE452FF4F808503
S1131010981308C080917B00886080937B00B09215
S11310207E0005C080917B00806180937B00DF910E
S1131030CF911F910F91FF90EF90DF90CF90BF90D1
S1131040089580917D00882341F080917D00815036
S113105080937D0010927A00089580917A00811126
S113106007C0809183008093840081E080937A009C
S1131070089580917F008F5F8F7090E09C01220F14
S1131080331F220F331F220F331F820F931F8452EB
S11310909F4F089580917F008F5F8F7080937F00B2
S11310A080917E0090917F00891B8F7029F490912C
S11310B07B00977F90937B000895FC015091800002
S11310C05F5F5F70852F90E0DC01AA0FBB1FAA0F42
S11310D0BB1FAA0FBB1FA80FB91FA458BE4F30E0F7
S11310E020E040814D934191340F2F5F2830C9F7A0
S11310F0FC01EE0FFF1FEE0FFF1FEE0FFF1F8E0F01
S11311009F1FFC01E458FE4F3087509380000895E0
S113111090E08B30910528F5FC01E453FF4F0C94CB
S1131120B4088FE589B908958FE389B908958FE2EA
S113113089B908958FE189B9089587E189B9089536
S11311408FE089B908958BE089B9089587E089B95A
S1131150089583E089B9089582E089B9089519B89A
S113116008958FE289B90895EE0FFF1F0590F49159
S1131170E02D0994DC01CB01FC01E199FECF06C00E
S1131180FFBBEEBBE09A31960DB20D924150504038
S1131190B8F70895262FE199FECF9FBB8EBBE09A46
S11311A001970DB2021631F02DBB0FB6F894E29AF6
S11311B0E19A0FBE0895DC01CB0103C02D910E947A
S11311C0E60841505040D0F70895262FE199FECF0C
S11311D09FBB8EBB2DBB0FB6F894E29AE19A0FBE6B
S10B11E001960895F894FFCF75
S9030000FC
